:03000000020046B5
:03000B0002009F51
:03001B000200F8E8
:1000430002012E758911758CFF758AFF758DFF75F9
:100053008BFFD2ABD2A97581707830792876FF08EF
:10006300D9FB75186A78287F3E12015ED8F9E51826
:10007300541CF55375F6FFD2E975F32F7B08E51889
:100083005438F553120180B2A48B57D28CD28ED23E
:10009300AFC2A3020099120180020099C2AFC28CC1
:1000A300C28E758CD0758A00C2D4D2D379077A7F79
:1000B30078307F05E6FE314608DFF9EAFE3146D2A5
:1000C300B2C2B2EA03FAD9EA7EDF314679047EFF8F
:1000D3003146D9FAE55A54E0232323FE74FE03DEA6
:1000E300FD4483FE3146D2B2C2B2C2D4C2D3D28C53
:1000F300D28ED2AF32C28CC28EC2AF758D00758BD9
:1001030000C0E0E5539001B893FF12015EE553048C
:10011300F553AB57DB0A7B08E5185438F553B2A403
:100123008B57D0E0D28ED28CD2AF32C28CC28EC269
:10013300AFC0E0E5F5F55A75F32FD0E0D28ED28C3F
:10014300D2AF32C0E0EE7E081392C1D2C0C2C0DE8D
:10015300F7D0E022E713F719DEFA22EF7D07795291
:010163001388
:100164007E05C0E03157D0E0DDF5227E9F12017597
:10017400227F0012017DD9F922DAFE22D2D4D2D311
:10018400E8FC1201AB1201AB6CFC1201AB1201AB27
:100194001201AB1201AB6CFC1201AB6CFC1201AB93
:1001A400ECFBC2D4C2D322EB33FBEA33FAE933F9D2
:1001B400E833F8223E3E3E3E3E3E3E3E3E3E3E1C40
:1001C4001C1C3E3E3E3E3E3838383E3E3E3E3E18C7
:1001D40018183E3E3E3E3E06063E3E3E3E3E3E082D
:1001E400083E3E3E3E3E3E32323E3E3E3E3E3E2691
:0C01F400263E3E3E3E3E3E26263E3E3E5F
:00000001FF
