:03000000020046B5
:03000B0002009F51
:03001B000200FBE5
:10004300020131758911758CFF758AFF758DFF75F6
:100053008BFFD2ABD2A97581707830792876FF08EF
:10006300D9FB75186A78287F3E120180D8F9E51804
:10007300541CF55375F6FFD2E975F32F7B08E51889
:100083005438F5531201A2B2A48B57D28CD28ED21C
:10009300AFC2A30200991201A2020099C2AFC28C9F
:1000A300C28E758CD0758A00C2D4D2D379077A7F79
:1000B30078307F05E6FE314908DFF9EAFE3149D29F
:1000C300B2C2B2EA03FAD9EA79047EFF3149D9FA16
:1000D3007EFB3149E55A54E0232323FE74FE03DEFD
:1000E300FD4483FE3149D2B2C2B212015AC2D4C214
:1000F300D3D28CD28ED2AF32C28CC28EC2AF758DA8
:1001030000758B00C0E0E5539001DA93FF12018084
:10011300E55304F553AB57DB0A7B08E5185438F570
:1001230053B2A48B57D0E0D28ED28CD2AF32C28CD2
:10013300C28EC2AFC0E0E5F5F55A75F32FD0E0D219
:100143008ED28CD2AF32C0E0EE7E081392C1D2C001
:10015300C2C0DEF7D0E022AF07A8307900E6552011
:04016300333333E916
:1001670033F9E82405F8DFF1E554F4597001220268
:100177000046E733F709DEFA22EF7D077930137E71
:1001870005C0E03179D0E0DDF5227E9F120197228C
:100197007F0012019FD9F922DAFE22D2D4D2D3E806
:1001A700FC1201CD1201CD6CFC1201CD1201CD1252
:1001B70001CD1201CD6CFC1201CD6CFC1201CDEC0E
:1001C700FBC2D4C2D322EB33FBEA33FAE933F9E8B3
:1001D70033F8223E3E3E3E3E3E3E3E3E3E3E1C1CE9
:1001E7001C3E3E3E3E3E3838383E3E3E3E3E1818A8
:1001F700183E3E3E3E3E06063E3E3E3E3E3E08081A
:100207003E3E3E3E3E3E32323E3E3E3E3E3E26264F
:0B0217003E3E3E3E3E3E26263E3E3E62
:00000001FF
