:0300000002001EDD
:03000B000200559B
:10001B00020098C2A3758911758CFB758A99758D31
:10002B00FF758BFFD2ABD2A9D2AF758170783079C7
:10003B002876FF08D9FB75186A7F7F120107D28CCF
:10004B00D28E7D14020052020052C2AFC28CC28EFD
:10005B00758CFB758A99C2D4D2D379077A7F7830A5
:10006B007F05E6FE11CD08DFF9EAFE11CDD2B2C253
:10007B00B2EA03FAD9EA79067EFF11CDD9FAD2B2E8
:10008B00C2B2C2D4C2D3D28CD28ED2AF32C28CC245
:10009B008EC2AF758DFF758B99DD20E55390013FB7
:1000AB0093FF1200E5E55304F553DB0F7B04E518D2
:1000BB00541CF553120107B2A47D14D28ED28CD2EC
:1000CB00AF32C0E0EE7E081392C1D2C0C2C0DEF7E1
:1000DB00D0E022E713F719DEFA22EF7D07795213EE
:1000EB007E05C0E011DED0E0DDF5227E9F1200FC24
:1000FB00227F00120104D9F922DAFE22D2D4D2D304
:10010B00E8FC1201321201326CFC12013212013284
:10011B001201321201326CFC1201326CFC120132F0
:0B012B00ECFBC2D4C2D322EB33FBEA92
:1001360033FAE933F9E833F8223E3E3E3E3E1C1CD4
:100146003E3E38383E3E18183E3E06063E3E0808FD
:090156003E3E32323E3E26263EBA
:00000001FF
