:03000000020046B5
:03000B000200866A
:03001B000200F0F0
:10004300020127758911758CFF758AFF758DFF7500
:100053008BFFD2ABD2A975817012019E75F6FFD2C8
:10006300E975F32F755A60D28CD28ED2AFC2A30238
:1000730000751201EA3059FA12022212019EC25986
:10008300020075C2AFC28CC28E758CD0758A00C255
:10009300D4D2D379077A7F78307F05E6FE313F08E3
:1000A300DFF9EAFE313FD2B2C2B2EA03FAD9EA7902
:1000B300067EFF313FD9FAD2B2C2B2205924790465
:1000C3007EFF313FD9FA7EFE313FE55A75F0258434
:1000D300FE74FD23DEFDF554FE313FD2B2C2B212EF
:1000E3000150C2D4C2D3D28CD28ED2AF32C28CC210
:1000F3008EC2AF758D00758B00C0E020591BE55390
:1001030090022B93FF1201BCE55304F553AB57DB6D
:10011300087B08E5185438F5538B57D0E0D28ED2BC
:100123008CD2AF32C28CC28EC2AFC0E0E5F5F55AB5
:1001330075F32FD0E0D28ED28CD2AF32C0E0EE7EF8
:10014300081392C1D2C0C2C0DEF7D0E022E5341357
:100153009267E539139266E53E139265E543139280
:0B01630064E548139263E54D139262BF
:10016E00E552139261E52CF4F52CE554F454FE554A
:10017E002C700122C2D4C2D378277900900273E882
:10018E0093FF1201BCD8F8E893FF1201BCD259229A
:10019E007830792876FF08D9FB75186A7B08E51840
:1001AE005438F5531201EAB2A48B57C25922EF7D8F
:1001BE00077930137E05C0E0E733F709DEFAD0E0A9
:1001CE00DDF1227D0F1201D7227E001201DFDDF953
:1001DE00227F001201E7DEF922DFFE22D2D4D2D333
:1001EE00E8FC1202151202156CFC12021512021511
:1001FE001202151202156CFC1202156CFC1202157D
:10020E00ECFBC2D4C2D322EB33FBEA33FAE933F967
:10021E00E833F8227580FFC2872083F8223E3E3EE7
:10022E003E3E3E3E3E3E3E3E1C1C1C3E3E3E3E3E46
:10023E003838383E3E3E3E3E1818183E3E3E3E3E54
:10024E0006063E3E3E3E3E3E08083E3E3E3E3E3E9C
:10025E0032323E3E3E3E3E3E26263E3E3E3E3E3EF8
:10026E0026263E3E3ECBF5F5C1FFD5D5C1FFE1DFDB
:10027E00DFE1FFC1DDDDC1FFFFFFD5D5C1FFC1FB52
:0D028E00F7FBC1FFC3F5F5C3FFC5D5DDC10A
:00000001FF
