:03000000020046B5
:03000B000200AB45
:03001B00020117C8
:1000430002014E758911758CFF758AFF758DFF75D9
:100053008BFFD2ABD2A97581701201B775F6FFD2AF
:10006300E975F32F755A60D28CD28ED2AFC2A30238
:1000730000751202043059FAC2D4C2D3C2AFC28C83
:10008300C28E78277900900284E893FF1201D3D8B7
:10009300F8E893FF1201D3D28CD28ED2AF1201EBC8
:1000A3001201B7C259020075C2AFC28CC28E758CE1
:1000B300D0758A00C2D4D2D379077A7F78307F058E
:1000C300E6FE316608DFF9EAFE3166D2B2C2B2EA71
:1000D30003FAD9EA79067EFF3166D9FAD2B2C2B2FF
:1000E30020592679047EFF3166D9FA7EFE3166E512
:1000F3005A75F02584FE74FD23DEFD4401F554FE9C
:100103003166D2B2C2B2120177C2D4C2D3D28CD278
:100113008ED2AF32C28CC28EC2AF758D00758B008A
:10012300C0E020591BE55390023C93FF1201D3E535
:100133005304F553AB57DB087B08E5185438F553E4
:100143008B57D0E0D28ED28CD2AF32C28CC28EC249
:10015300AFC0E0E5F5F55A75F32FD0E0D28ED28C1F
:0F016300D2AF32C0E0EE7E081392C1D2C0C2C04C
:10017200DEF7D0E022E534139267E539139266E5A3
:100182003E139265E543139264E548139263E54D8D
:10019200139262E552139261C260E52CF4F52CE5EC
:1001A20054F454FE552C70012278287FFF1201D39B
:1001B200D8F9D259227830792876FF08D9FB7518F8
:1001C2006A7B08E5185438F553120204B2A48B571F
:1001D20022EF7D077930137E05C0E031E4D0E0DD07
:1001E200F522E733F709DEFA227D0F1201F1227EB2
:1001F200001201F9DDF9227F00120201DEF922DF8D
:10020200FE22D2D4D2D3E8FC12022F12022F6CFCAF
:1002120012022F12022F12022F12022F6CFC120254
:100222002F6CFC12022FECFBC2D4C2D322EB33FBA5
:10023200EA33FAE933F9E833F8223E3E3E3E3E3EE7
:100242003E3E3E3E3E1C1C1C3E3E3E3E3E38383844
:100252003E3E3E3E3E1818183E3E3E3E3E06063E9E
:100262003E3E3E3E3E08083E3E3E3E3E3E32323E30
:100272003E3E3E3E3E26263E3E3E3E3E3E26263EFC
:100282003E3ECBF5F5C1FFD5D5C1FFE1DFDFE1FF92
:10029200C1DDDDC1FFFFFFD5D5C1FFC1FBF7FBC14A
:0A02A200FFC3F5F5C3FFC5D5DDC1AC
:00000001FF
