:0300000002000EED
:10000B0002004BC2A3758901758CFB758A99D2A925
:10001B00D2AF7581707830792876FF08D9FB7518C7
:10002B006A75F32075F601D28C020037AFF5C28CDE
:10003B00B2A41200A2D28C1200B3EF03FF0200375E
:10004B00C2AFC28C758CFB758A99C2D4D2D3790797
:10005B007A7F78307F05E6FE118A08DFF9EAFE1118
:10006B008AD2B2C2B2EA03FAD9EA79067EFF118AC2
:10007B00D9FAD2B2C2B2C2D4C2D3D28CD2AF32C0AE
:10008B00E0EE7E081392C1D2C0C2C0DEF7D0E022F0
:10009B00E713F719DEFA22EF7D077952137E05C0BD
:1000AB00E0119BD0E0DDF52279EF1200B9227A0F37
:1000BB001200C1D9F922DAFE22D2D4D2D3E8FC1233
:1000CB0000EF1200EF6CFC1200EF1200EF1200EFCA
:1000DB001200EF6CFC1200EF6CFC1200EFECFBC299
:1000EB00D4C2D322EB33FBEA33FAE933F9E833F822
:0100FB0022E2
:00000001FF
