:03000000020046B5
:03000B000200AB45
:03001B00020113CC
:1000430002014A758911758CFF758AFF758DFF75DD
:100053008BFFD2ABD2A97581701201B375F6FFD2B3
:10006300E975F32F755A60D28CD28ED2AFC2A30238
:1000730000751202003059FAC2D4C2D3C2AFC28C87
:10008300C28E78277900900280E893FF1201CFD8BF
:10009300F8E893FF1201CFD28CD28ED2AF1201E7D0
:1000A3001201B3C259020075C2AFC28CC28E758CE5
:1000B300D0758A00C2D4D2D379077A7F78307F058E
:1000C300E6FE316208DFF9EAFE3162D2B2C2B2EA79
:1000D30003FAD9EA7EFF3162D2B2C2B2205926793D
:1000E300047EFF3162D9FA7EFE3162E55A75F0254E
:1000F30084FE74FD23DEFD4401F554FE3162D2B269
:10010300C2B2120173C2D4C2D3D28CD28ED2AF3256
:10011300C28CC28EC2AF758D00758B00C0E02059B2
:100123001BE55390023893FF1201CFE55304F553B7
:10013300AB57DB087B08E5185438F5538B57D0E0F1
:10014300D28ED28CD2AF32C28CC28EC2AFC0E0E5A7
:10015300F5F55A75F32FD0E0D28ED28CD2AF32C0E0
:0F016300E0EE7E081392C1D2C0C2C0DEF7D0E03A
:1001720022E534139267E539139266E53E139265E0
:10018200E543139264E548139263E54D139262E5E9
:1001920052139261C260E52CF4F52CE554F454FE3E
:1001A200552C70012278287FFF1201CFD8F9D2593D
:1001B200227830792876FF08D9FB75186A7B08E522
:1001C200185438F553120200B2A48B5722EF7D0760
:1001D2007930137E05C0E031E0D0E0DDF522E7336F
:1001E200F709DEFA227D0F1201ED227E001201F5DF
:1001F200DDF9227F001201FDDEF922DFFE22D2D4D8
:10020200D2D3E8FC12022B12022B6CFC12022B122C
:10021200022B12022B12022B6CFC12022B6CFC1210
:10022200022BECFBC2D4C2D322EB33FBEA33FAE952
:1002320033F9E833F8223E3E3E3E3E3E3E3E3E3EEF
:100242003E1C1C1C3E3E3E3E3E3838383E3E3E3E44
:100252003E1818183E3E3E3E3E06063E3E3E3E3E9E
:100262003E08083E3E3E3E3E3E32323E3E3E3E3E30
:100272003E26263E3E3E3E3E3E26263E3E3ECBF5B8
:10028200F5C1FFD5D5C1FFE1DFDFE1FFC1DDDDC192
:10029200FFFFFFD5D5C1FFC1FBF7FBC1FFC3F5F5DA
:0602A200C3FFC5D5DDC15C
:00000001FF
