:03000000020046B5
:03000B000200A24E
:03001B000200FFE1
:10004300020135758911758CFF758AFF758DFF75F2
:100053008BFFD2ABD2A97581707830792876FF08EF
:10006300D9FB75186A78287F3E120182D8F9E51802
:10007300541CF55375F6FFD2E975F32F7B08E51889
:100083005438F5531201A4B2A48B57755A60D28C1D
:10009300D28ED2AFC2A302009C1201A402009CC262
:1000A300AFC28CC28E758CD0758A00C2D4D2D3797C
:1000B300077A7F78307F05E6FE314D08DFF9EAFEE7
:1000C300314DD2B2C2B2EA03FAD9EA79047EFF31E2
:1000D3004DD9FA7EFE314DE55A75F02584FE74FD47
:1000E30023DEFD4401FE314DF554D2B2C2B21201FA
:1000F3005EC2D4C2D3D28CD28ED2AF32C28CC28E65
:10010300C2AF758D00758B00C0E0E5539001DC93A1
:10011300FF120182E55304F553AB57DB0A7B08E575
:10012300185438F553B2A48B57D0E0D28ED28CD268
:10013300AF32C28CC28EC2AFC0E0E5F5F55A75F39B
:100143002FD0E0D28ED28CD2AF32C0E0EE7E081335
:1001530092C1D2C0C2C0DEF7D0E022AF07A8307987
:0801630000E6F4550113E93335
:10016B00F9E82405F8DFF2E554F4035922020046BE
:10017B00E733F709DEFA22EF7D077930137E05C0EE
:10018B00E0317BD0E0DDF5227E9F120199227F00CA
:10019B001201A1D9F922DAFE22D2D4D2D3E8FC1271
:1001AB0001CF1201CF6CFC1201CF1201CF1201CF84
:1001BB001201CF6CFC1201CF6CFC1201CFECFBC215
:1001CB00D4C2D322EB33FBEA33FAE933F9E833F841
:1001DB00223E3E3E3E3E3E3E3E3E3E3E1C1C1C3EB6
:1001EB003E3E3E3E3838383E3E3E3E3E1818183EA8
:1001FB003E3E3E3E06063E3E3E3E3E3E08083E3EF0
:10020B003E3E3E3E32323E3E3E3E3E3E26263E3E4B
:09021B003E3E3E3E26263E3E3EDC
:00000001FF
