:0300000002000EED
:10000B00020045C2A3758901758CFB758A99D2A92B
:10001B00D2AF7581707830792876FF08D9FB7518C7
:10002B006A7F7FD28C020033C28CB2A412009CD2A6
:10003B008C1200ADEF03FF020033C2AFC28C758C84
:10004B00FB758A99C2D4D2D379077A7F78307F0532
:10005B00E6FE118408DFF9EAFE1184D2B2C2B2EADD
:10006B0003FAD9EA79067EFF1184D9FAD2B2C2B269
:10007B00C2D4C2D3D28CD2AF32C0E0EE7E08139280
:10008B00C1D2C0C2C0DEF7D0E022E713F719DEFA07
:10009B0022EF7D077952137E05C0E01195D0E0DD8C
:1000AB00F52279EF1200B3227A001200BBD9F922A4
:1000BB00DAFE22D2D4D2D3E8FC1200E91200E96CAA
:1000CB00FC1200E91200E91200E91200E96CFC12C3
:1000DB0000E96CFC1200E9ECFBC2D4C2D322EB3377
:0B00EB00FBEA33FAE933F9E833F822AE
:00000001FF
