:03000000020046B5
:03000B000200866A
:03001B000200F2EE
:10004300020129758911758CFF758AFF758DFF75FE
:100053008BFFD2ABD2A97581701201A275F6FFD2C4
:10006300E975F32F755A60D28CD28ED2AFC2A30238
:1000730000751201EF3059FA1202271201A2C25978
:10008300020075C2AFC28CC28E758CD0758A00C255
:10009300D4D2D379077A7F78307F05E6FE314108E1
:1000A300DFF9EAFE3141D2B2C2B2EA03FAD9EA7900
:1000B300067EFF3141D9FAD2B2C2B2205926790461
:1000C3007EFF3141D9FA7EFE3141E55A75F0258430
:1000D300FE74FD23DEFD4401F554FE3141D2B2C26C
:1000E300B2120152C2D4C2D3D28CD28ED2AF32C298
:1000F3008CC28EC2AF758D00758B00C0E020591B7A
:10010300E55390023093FF1201BEE55304F553AB60
:1001130057DB087B08E5185438F5538B57D0E0D2EA
:100123008ED28CD2AF32C28CC28EC2AFC0E0E5F5A4
:10013300F55A75F32FD0E0D28ED28CD2AF32C0E015
:10014300EE7E081392C1D2C0C2C0DEF7D0E022E532
:1001530034139267E539139266E53E139265E543DE
:0B016300139264E548139263E54D130E
:10016E009262E552139261C260E52CF4F52CE554CF
:10017E00F454FE552C700122C2D4C2D378277900D4
:10018E00900278E893FF1201BED8F8E893FF1201AF
:10019E00BED259227830792876FF08D9FB75186AB5
:1001AE007B08E5185438F5531201EFB2A48B572291
:1001BE00EF7D077930137E05C0E031CFD0E0DDF55D
:1001CE0022E733F709DEFA227D0F1201DC227E00D0
:1001DE001201E4DDF9227F001201ECDEF922DFFECE
:1001EE0022D2D4D2D3E8FC12021A12021A6CFC12DA
:1001FE00021A12021A12021A12021A6CFC12021AB5
:10020E006CFC12021AECFBC2D4C2D322EB33FBEA13
:10021E0033FAE933F9E833F8227580FFC287208379
:10022E00F8223E3E3E3E3E3E3E3E3E3E3E1C1C1CA8
:10023E003E3E3E3E3E3838383E3E3E3E3E18181854
:10024E003E3E3E3E3E06063E3E3E3E3E3E08083E9C
:10025E003E3E3E3E3E32323E3E3E3E3E3E26263EF8
:10026E003E3E3E3E3E26263E3E3ECBF5F5C1FFD5FA
:10027E00D5C1FFE1DFDFE1FFC1DDDDC1FFFFFFD54E
:10028E00D5C1FFC1FBF7FBC1FFC3F5F5C3FFC5D554
:02029E00DDC1C0
:00000001FF
