:0300000002000EED
:10000B00020045C2A3758901758CFB758A99D2A92B
:10001B00D2AF7581707830792876FF08D9FB7518C7
:10002B006AD28C020031AF18C28CB2A41200B21289
:10003B000090D28C1200A1020031C2AFC28C758C21
:10004B00FB758A99C2D4D2D379077A7F78307F0532
:10005B00E6FE117808DFF9EAFE1178D2B2C2B2EAF5
:10006B0003FAD9EAC2D4C2D3D28CD2AF32C0E0EEFB
:10007B007E081392C1D2C0C2C0DEF7D0E022E713D4
:10008B00F719DEFA22EF7D077952137E05C0E011D6
:10009B0089D0E0DDF52279EF1200A7227A0F12004A
:1000AB00AFD9F922DAFE22D2D4D2D3E8FC1200DD8A
:1000BB001200DD6CFC1200DD1200DD1200DD1200FF
:1000CB00DD6CFC1200DD6CFC1200DDECFBC2D4C25B
:0F00DB00D322EB33FBEA33FAE933F9E833F822A7
:00000001FF
