:0300000002000EED
:10000B0002005AC2A3758901758CFB758A99D2A916
:10001B00D2AF7581707830792876FF08D9FB7518C7
:10002B006A7F7FD28C020033C28CB2A4E518540FC6
:10003B002323FA7B04740090010B93FF1200B1EAA7
:10004B0004FADBF31200D3D28C1200C2020033C2CB
:10005B00AFC28C758CFB758A99C2D4D2D379077ACF
:10006B007F78307F05E6FE119908DFF9EAFE1199DA
:10007B00D2B2C2B2EA03FAD9EA79067EFF1199D954
:10008B00FAD2B2C2B2C2D4C2D3D28CD2AF32C0E097
:10009B00EE7E081392C1D2C0C2C0DEF7D0E022E7D9
:1000AB0013F719DEFA22EF7D077952137E05C0E0B4
:1000BB0011AAD0E0DDF52279EF1200C8227A0012E6
:1000CB0000D0D9F922DAFE22D2D4D2D3E8FC120026
:1000DB00FE1200FE6CFC1200FE1200FE1200FE125D
:1000EB0000FE6CFC1200FE6CFC1200FEECFBC2D49A
:1000FB00C2D322EB33FBEA33FAE933F9E833F822C4
:10010B003E3E3E3E3E1C1C3E3E38383E3E18183EA0
:10011B003E06063E3E08083E3E32323E3E26263E18
:00000001FF
