:03000000020046B5
:03000B0002008D63
:03001B000200E6FA
:10004300020117758911758CFF758AFF758DFF7510
:100053008BFFD2ABD2A97581707830792876FF08EF
:10006300D9FB75186A78287F3E120147D8F9E5183D
:10007300541CF55375F6FFD2E975F32FC2A3D28C46
:10008300D28ED2AF02008A02008AC2AFC28CC28E65
:10009300758CD0758A00C2D4D2D379077A7F783031
:1000A3007F05E6FE312F08DFF9EAFE312FD2B2C217
:1000B300B2EA03FAD9EA7EDF312F79047EFF312FCA
:1000C300D9FAE55A54E0232323FE74FE03DEFD44EC
:1000D30083FE312FD2B2C2B2C2D4C2D3D28CD28E5B
:1000E300D2AF32C28CC28EC2AF758D00758B00E564
:1000F300539001A193FF120147E55304F553DB0D20
:100103007B04E5185438F553120169B2A4D28ED298
:100113008CD2AF32C28CC28EC2AFC0E0E5F5F55AC5
:1001230075F32FD0E0D28ED28CD2AF32C0E0EE7E08
:10013300081392C1D2C0C2C0DEF7D0E022E713F7A2
:1001430019DEFA22EF7D077952137E05C0E03140B4
:10015300D0E0DDF5227E9F12015E227F0012016650
:10016300D9F922DAFE22D2D4D2D3E8FC12019412B6
:1001730001946CFC120194120194120194120194E3
:100183006CFC1201946CFC120194ECFBC2D4C2D33C
:1001930022EB33FBEA33FAE933F9E833F8223E3E44
:1001A3003E3E3E3E3E3E3E3E3E1C1C1C3E3E3E3ED2
:1001B3003E3838383E3E3E3E3E1818183E3E3E3EE0
:1001C3003E06063E3E3E3E3E3E08083E3E3E3E3E28
:1001D3003E32323E3E3E3E3E3E26263E3E3E3E3E84
:0601E3003E26263E3E3ED2
:00000001FF
