:0300000002001EDD
:03000B0002005D93
:10001B000200A8758911758CFF758AFF758DFF75A8
:10002B008BFFD2ABD2A97581707830792876FF0817
:10003B00D9FB75186A78287F3E1200F1D8F9E518BC
:10004B00541CF553C2A3D28CD28ED2AF02005A02EB
:10005B00005AC2AFC28CC28E758CD0758A00C2D4C6
:10006B00D2D379077A7F78307F05E6FE11D908DF86
:10007B00F9EAFE11D9D2B2C2B2EA03FAD9EA7EDFAB
:10008B0011D979047EFF11D9D9FA7EEF11D9D2B2E9
:10009B00C2B2C2D4C2D3D28CD28ED2AF32C28CC235
:1000AB008EC2AF758D00758B00E55390014B93FF9E
:1000BB001200F1E55304F553DB0D7B04E518541CDA
:1000CB00F553120113B2A4D28ED28CD2AF32C0E050
:1000DB00EE7E081392C1D2C0C2C0DEF7D0E022E799
:1000EB0013F719DEFA22EF7D077952137E05C0E074
:1000FB0011EAD0E0DDF5227E9F120108227F00126B
:10010B000110D9F922DAFE22D2D4D2D3E8FC1201A3
:10011B003E12013E6CFC12013E12013E12013E12D8
:10012B00013E6CFC12013E6CFC12013EECFBC2D496
:10013B00C2D322EB33FBEA33FAE933F9E833F82283
:10014B003E3E3E3E3E1C1C3E3E38383E3E18183E60
:10015B003E06063E3E08083E3E32323E3E26263ED8
:00000001FF
