:03000000020046B5
:03000B0002009B55
:03001B000200F8E8
:1000430002012C758911758CFF758AFF758DFF75FB
:100053008BFFD2ABD2A97581707830792876FF08EF
:10006300D9FB75186AE518541CF55375F6FFD2E9E8
:1000730075F32F7B08E5185438F5531201BEB2A46B
:100083008B57755A60F52CD28CD28ED2AFC2A30295
:1000930000951201BE020095C2AFC28CC28E758C50
:1000A300D0758A00C2D4D2D379077A7F78307F059E
:1000B300E6FE314408DFF9EAFE3144D2B2C2B2EAC5
:1000C30003FAD9EA79047EFF3144D9FA7EFE31443A
:1000D300E55A75F02584FE74FD23DEFD4401F554D5
:1000E300FE3144120155D2B2C2B2C2D4C2D3D28CB1
:1000F300D28ED2AF32C28CC28EC2AF758D00758BD9
:1001030000C0E0E5539001F693FF12019CE5530410
:10011300F553AB57DB087B08E5185438F5538B5779
:10012300D0E0D28ED28CD2AF32C28CC28EC2AFC0DC
:10013300E0E5F5F55A75F32FD0E0D28ED28CD2AF2D
:1001430032C0E0EE7E081392C1D2C0C2C0DEF7D047
:10015300E022E534139267E539139266E53E139284
:0801630065E543139264E548D1
:10016B00139263E54D139262E552139261C260E5FF
:10017B002CF4F52CE554F454FE552C700122782800
:10018B007FFF12019CD8F902009BE733F709DEFAD7
:10019B0022EF7D077930137E05C0E03195D0E0DD8D
:1001AB00F5227E9F1201B3227F001201BBD9F922E7
:1001BB00DAFE22D2D4D2D3E8FC1201E91201E96CA7
:1001CB00FC1201E91201E91201E91201E96CFC12BE
:1001DB0001E96CFC1201E9ECFBC2D4C2D322EB3374
:1001EB00FBEA33FAE933F9E833F8223E3E3E3E3E72
:1001FB003E3E3E3E3E3E1C1C1C3E3E3E3E3E383886
:10020B00383E3E3E3E3E1818183E3E3E3E3E0606EB
:10021B003E3E3E3E3E3E08083E3E3E3E3E3E323277
:10022B003E3E3E3E3E3E26263E3E3E3E3E3E262643
:03023B003E3E3E06
:00000001FF
