:03000000020046B5
:03000B000200A24E
:03001B00020100DF
:10004300020136758911758CFF758AFF758DFF75F1
:100053008BFFD2ABD2A97581707830792876FF08EF
:10006300D9FB75186A78287F3E120183D8F9E51801
:10007300541CF55375F6FFD2E975F32F7B08E51889
:100083005438F5531201A5B2A48B57755A60D28C1C
:10009300D28ED2AFC2A302009C1201A502009CC261
:1000A300AFC28CC28E758CD0758A00C2D4D2D3797C
:1000B300077A7F78307F05E6FE314E08DFF9EAFEE6
:1000C300314ED2B2C2B2EA03FAD9EA79047EFF31E1
:1000D3004ED9FA7EFE314EE55A54E0232323FE74B3
:1000E300FE03DEFD4401FE314EF554D2B2C2B2121C
:1000F300015FC2D4C2D3D28CD28ED2AF32C28CC2F1
:100103008EC2AF758D00758B00C0E0E5539001DDA5
:1001130093FF120183E55304F553AB57DB0A7B08C6
:10012300E5185438F553B2A48B57D0E0D28ED28C55
:10013300D2AF32C28CC28EC2AFC0E0E5F5F55A75BC
:10014300F32FD0E0D28ED28CD2AF32C0E0EE7E0855
:100153001392C1D2C0C2C0DEF7D0E022AF07A830ED
:070163007900E6F4550113D9
:10016A00E933F9E82405F8DFF2E554F403592202E9
:10017A000046E733F709DEFA22EF7D077930137E6E
:10018A0005C0E0317CD0E0DDF5227E9F12019A2283
:10019A007F001201A2D9F922DAFE22D2D4D2D3E800
:1001AA00FC1201D01201D06CFC1201D01201D01243
:1001BA0001D01201D06CFC1201D06CFC1201D0ECFF
:1001CA00FBC2D4C2D322EB33FBEA33FAE933F9E8B0
:1001DA0033F8223E3E3E3E3E3E3E3E3E3E3E1C1CE6
:1001EA001C3E3E3E3E3E3838383E3E3E3E3E1818A5
:1001FA00183E3E3E3E3E06063E3E3E3E3E3E080817
:10020A003E3E3E3E3E3E32323E3E3E3E3E3E26264C
:0B021A003E3E3E3E3E3E26263E3E3E5F
:00000001FF
